{"contracts/AffidavitSign.sol":{"AffidavitSign":{"abi":[{"inputs":[],"name":"Nonce_Is_Used","type":"error"},{"inputs":[],"name":"SignerAddress_Recovery_Failed","type":"error"},{"inputs":[{"internalType":"bytes","name":"signature","type":"bytes"},{"internalType":"uint256","name":"nonce","type":"uint256"},{"internalType":"bytes32","name":"ipfs_hash","type":"bytes32"},{"internalType":"bytes8","name":"msgId","type":"bytes8"}],"name":"messageVerify","outputs":[{"internalType":"bool","name":"","type":"bool"}],"stateMutability":"nonpayable","type":"function"}],"evm":{"bytecode":{"linkReferences":{},"object":"608060405234801561001057600080fd5b50610b16806100206000396000f3fe608060405234801561001057600080fd5b506004361061002b5760003560e01c8063ce6f15c614610030575b600080fd5b61004a600480360381019061004591906106ff565b610060565b604051610057919061079d565b60405180910390f35b60008061006e858585610101565b905060008061007d83896101bc565b809350819250505060006004811115610099576100986107b8565b5b8260048111156100ac576100ab6107b8565b5b146100e3576040517f87e8191900000000000000000000000000000000000000000000000000000000815260040160405180910390fd5b60006100f082858b61020e565b905080945050505050949350505050565b600080600085815260200190815260200160002060009054906101000a900460ff16610159576040517f2991015c00000000000000000000000000000000000000000000000000000000815260040160405180910390fd5b600160008086815260200190815260200160002060006101000a81548160ff021916908315150217905550818385333060405160200161019d9594939291906108c4565b6040516020818303038152906040528051906020012090509392505050565b6000806041835114156101fe5760008060006020860151925060408601519150606086015160001a90506101f2878285856103d4565b94509450505050610207565b60006002915091505b9250929050565b600080600061021d85856101bc565b9150915060006004811115610235576102346107b8565b5b816004811115610248576102476107b8565b5b14801561028057508573ffffffffffffffffffffffffffffffffffffffff168273ffffffffffffffffffffffffffffffffffffffff16145b15610290576001925050506103cd565b6000808773ffffffffffffffffffffffffffffffffffffffff16631626ba7e60e01b88886040516024016102c59291906109ba565b604051602081830303815290604052907bffffffffffffffffffffffffffffffffffffffffffffffffffffffff19166020820180517bffffffffffffffffffffffffffffffffffffffffffffffffffffffff838183161783525050505060405161032f9190610a26565b600060405180830381855afa9150503d806000811461036a576040519150601f19603f3d011682016040523d82523d6000602084013e61036f565b606091505b5091509150818015610382575060208151145b80156103c65750631626ba7e60e01b7bffffffffffffffffffffffffffffffffffffffffffffffffffffffff1916818060200190518101906103c49190610a52565b145b9450505050505b9392505050565b6000807f7fffffffffffffffffffffffffffffff5d576e7357a4501ddfe92f46681b20a08360001c111561040f5760006003915091506104d8565b601b8560ff16141580156104275750601c8560ff1614155b156104395760006004915091506104d8565b60006001878787876040516000815260200160405260405161045e9493929190610a9b565b6020604051602081039080840390855afa158015610480573d6000803e3d6000fd5b505050602060405103519050600073ffffffffffffffffffffffffffffffffffffffff168173ffffffffffffffffffffffffffffffffffffffff1614156104cf576000600192509250506104d8565b80600092509250505b94509492505050565b6000604051905090565b600080fd5b600080fd5b600080fd5b600080fd5b6000601f19601f8301169050919050565b7f4e487b7100000000000000000000000000000000000000000000000000000000600052604160045260246000fd5b610548826104ff565b810181811067ffffffffffffffff8211171561056757610566610510565b5b80604052505050565b600061057a6104e1565b9050610586828261053f565b919050565b600067ffffffffffffffff8211156105a6576105a5610510565b5b6105af826104ff565b9050602081019050919050565b82818337600083830152505050565b60006105de6105d98461058b565b610570565b9050828152602081018484840111156105fa576105f96104fa565b5b6106058482856105bc565b509392505050565b600082601f830112610622576106216104f5565b5b81356106328482602086016105cb565b91505092915050565b6000819050919050565b61064e8161063b565b811461065957600080fd5b50565b60008135905061066b81610645565b92915050565b6000819050919050565b61068481610671565b811461068f57600080fd5b50565b6000813590506106a18161067b565b92915050565b60007fffffffffffffffff00000000000000000000000000000000000000000000000082169050919050565b6106dc816106a7565b81146106e757600080fd5b50565b6000813590506106f9816106d3565b92915050565b60008060008060808587031215610719576107186104eb565b5b600085013567ffffffffffffffff811115610737576107366104f0565b5b6107438782880161060d565b94505060206107548782880161065c565b935050604061076587828801610692565b9250506060610776878288016106ea565b91505092959194509250565b60008115159050919050565b61079781610782565b82525050565b60006020820190506107b2600083018461078e565b92915050565b7f4e487b7100000000000000000000000000000000000000000000000000000000600052602160045260246000fd5b6000819050919050565b6108026107fd826106a7565b6107e7565b82525050565b6000819050919050565b61082361081e82610671565b610808565b82525050565b6000819050919050565b61084461083f8261063b565b610829565b82525050565b600073ffffffffffffffffffffffffffffffffffffffff82169050919050565b60006108758261084a565b9050919050565b60008160601b9050919050565b60006108948261087c565b9050919050565b60006108a682610889565b9050919050565b6108be6108b98261086a565b61089b565b82525050565b60006108d082886107f1565b6008820191506108e08287610812565b6020820191506108f08286610833565b60208201915061090082856108ad565b60148201915061091082846108ad565b6014820191508190509695505050505050565b61092c81610671565b82525050565b600081519050919050565b600082825260208201905092915050565b60005b8381101561096c578082015181840152602081019050610951565b8381111561097b576000848401525b50505050565b600061098c82610932565b610996818561093d565b93506109a681856020860161094e565b6109af816104ff565b840191505092915050565b60006040820190506109cf6000830185610923565b81810360208301526109e18184610981565b90509392505050565b600081905092915050565b6000610a0082610932565b610a0a81856109ea565b9350610a1a81856020860161094e565b80840191505092915050565b6000610a3282846109f5565b915081905092915050565b600081519050610a4c8161067b565b92915050565b600060208284031215610a6857610a676104eb565b5b6000610a7684828501610a3d565b91505092915050565b600060ff82169050919050565b610a9581610a7f565b82525050565b6000608082019050610ab06000830187610923565b610abd6020830186610a8c565b610aca6040830185610923565b610ad76060830184610923565b9594505050505056fea2646970667358221220404453ef8fe156e7cf0e4a8c1d29dde998c5b22515871cc37efe4c69a666a45464736f6c63430008090033","opcodes":"PUSH1 0x80 PUSH1 0x40 MSTORE CALLVALUE DUP1 ISZERO PUSH2 0x10 JUMPI PUSH1 0x0 DUP1 REVERT JUMPDEST POP PUSH2 0xB16 DUP1 PUSH2 0x20 PUSH1 0x0 CODECOPY PUSH1 0x0 RETURN INVALID PUSH1 0x80 PUSH1 0x40 MSTORE CALLVALUE DUP1 ISZERO PUSH2 0x10 JUMPI PUSH1 0x0 DUP1 REVERT JUMPDEST POP PUSH1 0x4 CALLDATASIZE LT PUSH2 0x2B JUMPI PUSH1 0x0 CALLDATALOAD PUSH1 0xE0 SHR DUP1 PUSH4 0xCE6F15C6 EQ PUSH2 0x30 JUMPI JUMPDEST PUSH1 0x0 DUP1 REVERT JUMPDEST PUSH2 0x4A PUSH1 0x4 DUP1 CALLDATASIZE SUB DUP2 ADD SWAP1 PUSH2 0x45 SWAP2 SWAP1 PUSH2 0x6FF JUMP JUMPDEST PUSH2 0x60 JUMP JUMPDEST PUSH1 0x40 MLOAD PUSH2 0x57 SWAP2 SWAP1 PUSH2 0x79D JUMP JUMPDEST PUSH1 0x40 MLOAD DUP1 SWAP2 SUB SWAP1 RETURN JUMPDEST PUSH1 0x0 DUP1 PUSH2 0x6E DUP6 DUP6 DUP6 PUSH2 0x101 JUMP JUMPDEST SWAP1 POP PUSH1 0x0 DUP1 PUSH2 0x7D DUP4 DUP10 PUSH2 0x1BC JUMP JUMPDEST DUP1 SWAP4 POP DUP2 SWAP3 POP POP POP PUSH1 0x0 PUSH1 0x4 DUP2 GT ISZERO PUSH2 0x99 JUMPI PUSH2 0x98 PUSH2 0x7B8 JUMP JUMPDEST JUMPDEST DUP3 PUSH1 0x4 DUP2 GT ISZERO PUSH2 0xAC JUMPI PUSH2 0xAB PUSH2 0x7B8 JUMP JUMPDEST JUMPDEST EQ PUSH2 0xE3 JUMPI PUSH1 0x40 MLOAD PUSH32 0x87E8191900000000000000000000000000000000000000000000000000000000 DUP2 MSTORE PUSH1 0x4 ADD PUSH1 0x40 MLOAD DUP1 SWAP2 SUB SWAP1 REVERT JUMPDEST PUSH1 0x0 PUSH2 0xF0 DUP3 DUP6 DUP12 PUSH2 0x20E JUMP JUMPDEST SWAP1 POP DUP1 SWAP5 POP POP POP POP POP SWAP5 SWAP4 POP POP POP POP JUMP JUMPDEST PUSH1 0x0 DUP1 PUSH1 0x0 DUP6 DUP2 MSTORE PUSH1 0x20 ADD SWAP1 DUP2 MSTORE PUSH1 0x20 ADD PUSH1 0x0 KECCAK256 PUSH1 0x0 SWAP1 SLOAD SWAP1 PUSH2 0x100 EXP SWAP1 DIV PUSH1 0xFF AND PUSH2 0x159 JUMPI PUSH1 0x40 MLOAD PUSH32 0x2991015C00000000000000000000000000000000000000000000000000000000 DUP2 MSTORE PUSH1 0x4 ADD PUSH1 0x40 MLOAD DUP1 SWAP2 SUB SWAP1 REVERT JUMPDEST PUSH1 0x1 PUSH1 0x0 DUP1 DUP7 DUP2 MSTORE PUSH1 0x20 ADD SWAP1 DUP2 MSTORE PUSH1 0x20 ADD PUSH1 0x0 KECCAK256 PUSH1 0x0 PUSH2 0x100 EXP DUP2 SLOAD DUP2 PUSH1 0xFF MUL NOT AND SWAP1 DUP4 ISZERO ISZERO MUL OR SWAP1 SSTORE POP DUP2 DUP4 DUP6 CALLER ADDRESS PUSH1 0x40 MLOAD PUSH1 0x20 ADD PUSH2 0x19D SWAP6 SWAP5 SWAP4 SWAP3 SWAP2 SWAP1 PUSH2 0x8C4 JUMP JUMPDEST PUSH1 0x40 MLOAD PUSH1 0x20 DUP2 DUP4 SUB SUB DUP2 MSTORE SWAP1 PUSH1 0x40 MSTORE DUP1 MLOAD SWAP1 PUSH1 0x20 ADD KECCAK256 SWAP1 POP SWAP4 SWAP3 POP POP POP JUMP JUMPDEST PUSH1 0x0 DUP1 PUSH1 0x41 DUP4 MLOAD EQ ISZERO PUSH2 0x1FE JUMPI PUSH1 0x0 DUP1 PUSH1 0x0 PUSH1 0x20 DUP7 ADD MLOAD SWAP3 POP PUSH1 0x40 DUP7 ADD MLOAD SWAP2 POP PUSH1 0x60 DUP7 ADD MLOAD PUSH1 0x0 BYTE SWAP1 POP PUSH2 0x1F2 DUP8 DUP3 DUP6 DUP6 PUSH2 0x3D4 JUMP JUMPDEST SWAP5 POP SWAP5 POP POP POP POP PUSH2 0x207 JUMP JUMPDEST PUSH1 0x0 PUSH1 0x2 SWAP2 POP SWAP2 POP JUMPDEST SWAP3 POP SWAP3 SWAP1 POP JUMP JUMPDEST PUSH1 0x0 DUP1 PUSH1 0x0 PUSH2 0x21D DUP6 DUP6 PUSH2 0x1BC JUMP JUMPDEST SWAP2 POP SWAP2 POP PUSH1 0x0 PUSH1 0x4 DUP2 GT ISZERO PUSH2 0x235 JUMPI PUSH2 0x234 PUSH2 0x7B8 JUMP JUMPDEST JUMPDEST DUP2 PUSH1 0x4 DUP2 GT ISZERO PUSH2 0x248 JUMPI PUSH2 0x247 PUSH2 0x7B8 JUMP JUMPDEST JUMPDEST EQ DUP1 ISZERO PUSH2 0x280 JUMPI POP DUP6 PUSH20 0xFFFFFFFFFFFFFFFFFFFFFFFFFFFFFFFFFFFFFFFF AND DUP3 PUSH20 0xFFFFFFFFFFFFFFFFFFFFFFFFFFFFFFFFFFFFFFFF AND EQ JUMPDEST ISZERO PUSH2 0x290 JUMPI PUSH1 0x1 SWAP3 POP POP POP PUSH2 0x3CD JUMP JUMPDEST PUSH1 0x0 DUP1 DUP8 PUSH20 0xFFFFFFFFFFFFFFFFFFFFFFFFFFFFFFFFFFFFFFFF AND PUSH4 0x1626BA7E PUSH1 0xE0 SHL DUP9 DUP9 PUSH1 0x40 MLOAD PUSH1 0x24 ADD PUSH2 0x2C5 SWAP3 SWAP2 SWAP1 PUSH2 0x9BA JUMP JUMPDEST PUSH1 0x40 MLOAD PUSH1 0x20 DUP2 DUP4 SUB SUB DUP2 MSTORE SWAP1 PUSH1 0x40 MSTORE SWAP1 PUSH28 0xFFFFFFFFFFFFFFFFFFFFFFFFFFFFFFFFFFFFFFFFFFFFFFFFFFFFFFFF NOT AND PUSH1 0x20 DUP3 ADD DUP1 MLOAD PUSH28 0xFFFFFFFFFFFFFFFFFFFFFFFFFFFFFFFFFFFFFFFFFFFFFFFFFFFFFFFF DUP4 DUP2 DUP4 AND OR DUP4 MSTORE POP POP POP POP PUSH1 0x40 MLOAD PUSH2 0x32F SWAP2 SWAP1 PUSH2 0xA26 JUMP JUMPDEST PUSH1 0x0 PUSH1 0x40 MLOAD DUP1 DUP4 SUB DUP2 DUP6 GAS STATICCALL SWAP2 POP POP RETURNDATASIZE DUP1 PUSH1 0x0 DUP2 EQ PUSH2 0x36A JUMPI PUSH1 0x40 MLOAD SWAP2 POP PUSH1 0x1F NOT PUSH1 0x3F RETURNDATASIZE ADD AND DUP3 ADD PUSH1 0x40 MSTORE RETURNDATASIZE DUP3 MSTORE RETURNDATASIZE PUSH1 0x0 PUSH1 0x20 DUP5 ADD RETURNDATACOPY PUSH2 0x36F JUMP JUMPDEST PUSH1 0x60 SWAP2 POP JUMPDEST POP SWAP2 POP SWAP2 POP DUP2 DUP1 ISZERO PUSH2 0x382 JUMPI POP PUSH1 0x20 DUP2 MLOAD EQ JUMPDEST DUP1 ISZERO PUSH2 0x3C6 JUMPI POP PUSH4 0x1626BA7E PUSH1 0xE0 SHL PUSH28 0xFFFFFFFFFFFFFFFFFFFFFFFFFFFFFFFFFFFFFFFFFFFFFFFFFFFFFFFF NOT AND DUP2 DUP1 PUSH1 0x20 ADD SWAP1 MLOAD DUP2 ADD SWAP1 PUSH2 0x3C4 SWAP2 SWAP1 PUSH2 0xA52 JUMP JUMPDEST EQ JUMPDEST SWAP5 POP POP POP POP POP JUMPDEST SWAP4 SWAP3 POP POP POP JUMP JUMPDEST PUSH1 0x0 DUP1 PUSH32 0x7FFFFFFFFFFFFFFFFFFFFFFFFFFFFFFF5D576E7357A4501DDFE92F46681B20A0 DUP4 PUSH1 0x0 SHR GT ISZERO PUSH2 0x40F JUMPI PUSH1 0x0 PUSH1 0x3 SWAP2 POP SWAP2 POP PUSH2 0x4D8 JUMP JUMPDEST PUSH1 0x1B DUP6 PUSH1 0xFF AND EQ ISZERO DUP1 ISZERO PUSH2 0x427 JUMPI POP PUSH1 0x1C DUP6 PUSH1 0xFF AND EQ ISZERO JUMPDEST ISZERO PUSH2 0x439 JUMPI PUSH1 0x0 PUSH1 0x4 SWAP2 POP SWAP2 POP PUSH2 0x4D8 JUMP JUMPDEST PUSH1 0x0 PUSH1 0x1 DUP8 DUP8 DUP8 DUP8 PUSH1 0x40 MLOAD PUSH1 0x0 DUP2 MSTORE PUSH1 0x20 ADD PUSH1 0x40 MSTORE PUSH1 0x40 MLOAD PUSH2 0x45E SWAP5 SWAP4 SWAP3 SWAP2 SWAP1 PUSH2 0xA9B JUMP JUMPDEST PUSH1 0x20 PUSH1 0x40 MLOAD PUSH1 0x20 DUP2 SUB SWAP1 DUP1 DUP5 SUB SWAP1 DUP6 GAS STATICCALL ISZERO DUP1 ISZERO PUSH2 0x480 JUMPI RETURNDATASIZE PUSH1 0x0 DUP1 RETURNDATACOPY RETURNDATASIZE PUSH1 0x0 REVERT JUMPDEST POP POP POP PUSH1 0x20 PUSH1 0x40 MLOAD SUB MLOAD SWAP1 POP PUSH1 0x0 PUSH20 0xFFFFFFFFFFFFFFFFFFFFFFFFFFFFFFFFFFFFFFFF AND DUP2 PUSH20 0xFFFFFFFFFFFFFFFFFFFFFFFFFFFFFFFFFFFFFFFF AND EQ ISZERO PUSH2 0x4CF JUMPI PUSH1 0x0 PUSH1 0x1 SWAP3 POP SWAP3 POP POP PUSH2 0x4D8 JUMP JUMPDEST DUP1 PUSH1 0x0 SWAP3 POP SWAP3 POP POP JUMPDEST SWAP5 POP SWAP5 SWAP3 POP POP POP JUMP JUMPDEST PUSH1 0x0 PUSH1 0x40 MLOAD SWAP1 POP SWAP1 JUMP JUMPDEST PUSH1 0x0 DUP1 REVERT JUMPDEST PUSH1 0x0 DUP1 REVERT JUMPDEST PUSH1 0x0 DUP1 REVERT JUMPDEST PUSH1 0x0 DUP1 REVERT JUMPDEST PUSH1 0x0 PUSH1 0x1F NOT PUSH1 0x1F DUP4 ADD AND SWAP1 POP SWAP2 SWAP1 POP JUMP JUMPDEST PUSH32 0x4E487B7100000000000000000000000000000000000000000000000000000000 PUSH1 0x0 MSTORE PUSH1 0x41 PUSH1 0x4 MSTORE PUSH1 0x24 PUSH1 0x0 REVERT JUMPDEST PUSH2 0x548 DUP3 PUSH2 0x4FF JUMP JUMPDEST DUP2 ADD DUP2 DUP2 LT PUSH8 0xFFFFFFFFFFFFFFFF DUP3 GT OR ISZERO PUSH2 0x567 JUMPI PUSH2 0x566 PUSH2 0x510 JUMP JUMPDEST JUMPDEST DUP1 PUSH1 0x40 MSTORE POP POP POP JUMP JUMPDEST PUSH1 0x0 PUSH2 0x57A PUSH2 0x4E1 JUMP JUMPDEST SWAP1 POP PUSH2 0x586 DUP3 DUP3 PUSH2 0x53F JUMP JUMPDEST SWAP2 SWAP1 POP JUMP JUMPDEST PUSH1 0x0 PUSH8 0xFFFFFFFFFFFFFFFF DUP3 GT ISZERO PUSH2 0x5A6 JUMPI PUSH2 0x5A5 PUSH2 0x510 JUMP JUMPDEST JUMPDEST PUSH2 0x5AF DUP3 PUSH2 0x4FF JUMP JUMPDEST SWAP1 POP PUSH1 0x20 DUP2 ADD SWAP1 POP SWAP2 SWAP1 POP JUMP JUMPDEST DUP3 DUP2 DUP4 CALLDATACOPY PUSH1 0x0 DUP4 DUP4 ADD MSTORE POP POP POP JUMP JUMPDEST PUSH1 0x0 PUSH2 0x5DE PUSH2 0x5D9 DUP5 PUSH2 0x58B JUMP JUMPDEST PUSH2 0x570 JUMP JUMPDEST SWAP1 POP DUP3 DUP2 MSTORE PUSH1 0x20 DUP2 ADD DUP5 DUP5 DUP5 ADD GT ISZERO PUSH2 0x5FA JUMPI PUSH2 0x5F9 PUSH2 0x4FA JUMP JUMPDEST JUMPDEST PUSH2 0x605 DUP5 DUP3 DUP6 PUSH2 0x5BC JUMP JUMPDEST POP SWAP4 SWAP3 POP POP POP JUMP JUMPDEST PUSH1 0x0 DUP3 PUSH1 0x1F DUP4 ADD SLT PUSH2 0x622 JUMPI PUSH2 0x621 PUSH2 0x4F5 JUMP JUMPDEST JUMPDEST DUP2 CALLDATALOAD PUSH2 0x632 DUP5 DUP3 PUSH1 0x20 DUP7 ADD PUSH2 0x5CB JUMP JUMPDEST SWAP2 POP POP SWAP3 SWAP2 POP POP JUMP JUMPDEST PUSH1 0x0 DUP2 SWAP1 POP SWAP2 SWAP1 POP JUMP JUMPDEST PUSH2 0x64E DUP2 PUSH2 0x63B JUMP JUMPDEST DUP2 EQ PUSH2 0x659 JUMPI PUSH1 0x0 DUP1 REVERT JUMPDEST POP JUMP JUMPDEST PUSH1 0x0 DUP2 CALLDATALOAD SWAP1 POP PUSH2 0x66B DUP2 PUSH2 0x645 JUMP JUMPDEST SWAP3 SWAP2 POP POP JUMP JUMPDEST PUSH1 0x0 DUP2 SWAP1 POP SWAP2 SWAP1 POP JUMP JUMPDEST PUSH2 0x684 DUP2 PUSH2 0x671 JUMP JUMPDEST DUP2 EQ PUSH2 0x68F JUMPI PUSH1 0x0 DUP1 REVERT JUMPDEST POP JUMP JUMPDEST PUSH1 0x0 DUP2 CALLDATALOAD SWAP1 POP PUSH2 0x6A1 DUP2 PUSH2 0x67B JUMP JUMPDEST SWAP3 SWAP2 POP POP JUMP JUMPDEST PUSH1 0x0 PUSH32 0xFFFFFFFFFFFFFFFF000000000000000000000000000000000000000000000000 DUP3 AND SWAP1 POP SWAP2 SWAP1 POP JUMP JUMPDEST PUSH2 0x6DC DUP2 PUSH2 0x6A7 JUMP JUMPDEST DUP2 EQ PUSH2 0x6E7 JUMPI PUSH1 0x0 DUP1 REVERT JUMPDEST POP JUMP JUMPDEST PUSH1 0x0 DUP2 CALLDATALOAD SWAP1 POP PUSH2 0x6F9 DUP2 PUSH2 0x6D3 JUMP JUMPDEST SWAP3 SWAP2 POP POP JUMP JUMPDEST PUSH1 0x0 DUP1 PUSH1 0x0 DUP1 PUSH1 0x80 DUP6 DUP8 SUB SLT ISZERO PUSH2 0x719 JUMPI PUSH2 0x718 PUSH2 0x4EB JUMP JUMPDEST JUMPDEST PUSH1 0x0 DUP6 ADD CALLDATALOAD PUSH8 0xFFFFFFFFFFFFFFFF DUP2 GT ISZERO PUSH2 0x737 JUMPI PUSH2 0x736 PUSH2 0x4F0 JUMP JUMPDEST JUMPDEST PUSH2 0x743 DUP8 DUP3 DUP9 ADD PUSH2 0x60D JUMP JUMPDEST SWAP5 POP POP PUSH1 0x20 PUSH2 0x754 DUP8 DUP3 DUP9 ADD PUSH2 0x65C JUMP JUMPDEST SWAP4 POP POP PUSH1 0x40 PUSH2 0x765 DUP8 DUP3 DUP9 ADD PUSH2 0x692 JUMP JUMPDEST SWAP3 POP POP PUSH1 0x60 PUSH2 0x776 DUP8 DUP3 DUP9 ADD PUSH2 0x6EA JUMP JUMPDEST SWAP2 POP POP SWAP3 SWAP6 SWAP2 SWAP5 POP SWAP3 POP JUMP JUMPDEST PUSH1 0x0 DUP2 ISZERO ISZERO SWAP1 POP SWAP2 SWAP1 POP JUMP JUMPDEST PUSH2 0x797 DUP2 PUSH2 0x782 JUMP JUMPDEST DUP3 MSTORE POP POP JUMP JUMPDEST PUSH1 0x0 PUSH1 0x20 DUP3 ADD SWAP1 POP PUSH2 0x7B2 PUSH1 0x0 DUP4 ADD DUP5 PUSH2 0x78E JUMP JUMPDEST SWAP3 SWAP2 POP POP JUMP JUMPDEST PUSH32 0x4E487B7100000000000000000000000000000000000000000000000000000000 PUSH1 0x0 MSTORE PUSH1 0x21 PUSH1 0x4 MSTORE PUSH1 0x24 PUSH1 0x0 REVERT JUMPDEST PUSH1 0x0 DUP2 SWAP1 POP SWAP2 SWAP1 POP JUMP JUMPDEST PUSH2 0x802 PUSH2 0x7FD DUP3 PUSH2 0x6A7 JUMP JUMPDEST PUSH2 0x7E7 JUMP JUMPDEST DUP3 MSTORE POP POP JUMP JUMPDEST PUSH1 0x0 DUP2 SWAP1 POP SWAP2 SWAP1 POP JUMP JUMPDEST PUSH2 0x823 PUSH2 0x81E DUP3 PUSH2 0x671 JUMP JUMPDEST PUSH2 0x808 JUMP JUMPDEST DUP3 MSTORE POP POP JUMP JUMPDEST PUSH1 0x0 DUP2 SWAP1 POP SWAP2 SWAP1 POP JUMP JUMPDEST PUSH2 0x844 PUSH2 0x83F DUP3 PUSH2 0x63B JUMP JUMPDEST PUSH2 0x829 JUMP JUMPDEST DUP3 MSTORE POP POP JUMP JUMPDEST PUSH1 0x0 PUSH20 0xFFFFFFFFFFFFFFFFFFFFFFFFFFFFFFFFFFFFFFFF DUP3 AND SWAP1 POP SWAP2 SWAP1 POP JUMP JUMPDEST PUSH1 0x0 PUSH2 0x875 DUP3 PUSH2 0x84A JUMP JUMPDEST SWAP1 POP SWAP2 SWAP1 POP JUMP JUMPDEST PUSH1 0x0 DUP2 PUSH1 0x60 SHL SWAP1 POP SWAP2 SWAP1 POP JUMP JUMPDEST PUSH1 0x0 PUSH2 0x894 DUP3 PUSH2 0x87C JUMP JUMPDEST SWAP1 POP SWAP2 SWAP1 POP JUMP JUMPDEST PUSH1 0x0 PUSH2 0x8A6 DUP3 PUSH2 0x889 JUMP JUMPDEST SWAP1 POP SWAP2 SWAP1 POP JUMP JUMPDEST PUSH2 0x8BE PUSH2 0x8B9 DUP3 PUSH2 0x86A JUMP JUMPDEST PUSH2 0x89B JUMP JUMPDEST DUP3 MSTORE POP POP JUMP JUMPDEST PUSH1 0x0 PUSH2 0x8D0 DUP3 DUP9 PUSH2 0x7F1 JUMP JUMPDEST PUSH1 0x8 DUP3 ADD SWAP2 POP PUSH2 0x8E0 DUP3 DUP8 PUSH2 0x812 JUMP JUMPDEST PUSH1 0x20 DUP3 ADD SWAP2 POP PUSH2 0x8F0 DUP3 DUP7 PUSH2 0x833 JUMP JUMPDEST PUSH1 0x20 DUP3 ADD SWAP2 POP PUSH2 0x900 DUP3 DUP6 PUSH2 0x8AD JUMP JUMPDEST PUSH1 0x14 DUP3 ADD SWAP2 POP PUSH2 0x910 DUP3 DUP5 PUSH2 0x8AD JUMP JUMPDEST PUSH1 0x14 DUP3 ADD SWAP2 POP DUP2 SWAP1 POP SWAP7 SWAP6 POP POP POP POP POP POP JUMP JUMPDEST PUSH2 0x92C DUP2 PUSH2 0x671 JUMP JUMPDEST DUP3 MSTORE POP POP JUMP JUMPDEST PUSH1 0x0 DUP2 MLOAD SWAP1 POP SWAP2 SWAP1 POP JUMP JUMPDEST PUSH1 0x0 DUP3 DUP3 MSTORE PUSH1 0x20 DUP3 ADD SWAP1 POP SWAP3 SWAP2 POP POP JUMP JUMPDEST PUSH1 0x0 JUMPDEST DUP4 DUP2 LT ISZERO PUSH2 0x96C JUMPI DUP1 DUP3 ADD MLOAD DUP2 DUP5 ADD MSTORE PUSH1 0x20 DUP2 ADD SWAP1 POP PUSH2 0x951 JUMP JUMPDEST DUP4 DUP2 GT ISZERO PUSH2 0x97B JUMPI PUSH1 0x0 DUP5 DUP5 ADD MSTORE JUMPDEST POP POP POP POP JUMP JUMPDEST PUSH1 0x0 PUSH2 0x98C DUP3 PUSH2 0x932 JUMP JUMPDEST PUSH2 0x996 DUP2 DUP6 PUSH2 0x93D JUMP JUMPDEST SWAP4 POP PUSH2 0x9A6 DUP2 DUP6 PUSH1 0x20 DUP7 ADD PUSH2 0x94E JUMP JUMPDEST PUSH2 0x9AF DUP2 PUSH2 0x4FF JUMP JUMPDEST DUP5 ADD SWAP2 POP POP SWAP3 SWAP2 POP POP JUMP JUMPDEST PUSH1 0x0 PUSH1 0x40 DUP3 ADD SWAP1 POP PUSH2 0x9CF PUSH1 0x0 DUP4 ADD DUP6 PUSH2 0x923 JUMP JUMPDEST DUP2 DUP2 SUB PUSH1 0x20 DUP4 ADD MSTORE PUSH2 0x9E1 DUP2 DUP5 PUSH2 0x981 JUMP JUMPDEST SWAP1 POP SWAP4 SWAP3 POP POP POP JUMP JUMPDEST PUSH1 0x0 DUP2 SWAP1 POP SWAP3 SWAP2 POP POP JUMP JUMPDEST PUSH1 0x0 PUSH2 0xA00 DUP3 PUSH2 0x932 JUMP JUMPDEST PUSH2 0xA0A DUP2 DUP6 PUSH2 0x9EA JUMP JUMPDEST SWAP4 POP PUSH2 0xA1A DUP2 DUP6 PUSH1 0x20 DUP7 ADD PUSH2 0x94E JUMP JUMPDEST DUP1 DUP5 ADD SWAP2 POP POP SWAP3 SWAP2 POP POP JUMP JUMPDEST PUSH1 0x0 PUSH2 0xA32 DUP3 DUP5 PUSH2 0x9F5 JUMP JUMPDEST SWAP2 POP DUP2 SWAP1 POP SWAP3 SWAP2 POP POP JUMP JUMPDEST PUSH1 0x0 DUP2 MLOAD SWAP1 POP PUSH2 0xA4C DUP2 PUSH2 0x67B JUMP JUMPDEST SWAP3 SWAP2 POP POP JUMP JUMPDEST PUSH1 0x0 PUSH1 0x20 DUP3 DUP5 SUB SLT ISZERO PUSH2 0xA68 JUMPI PUSH2 0xA67 PUSH2 0x4EB JUMP JUMPDEST JUMPDEST PUSH1 0x0 PUSH2 0xA76 DUP5 DUP3 DUP6 ADD PUSH2 0xA3D JUMP JUMPDEST SWAP2 POP POP SWAP3 SWAP2 POP POP JUMP JUMPDEST PUSH1 0x0 PUSH1 0xFF DUP3 AND SWAP1 POP SWAP2 SWAP1 POP JUMP JUMPDEST PUSH2 0xA95 DUP2 PUSH2 0xA7F JUMP JUMPDEST DUP3 MSTORE POP POP JUMP JUMPDEST PUSH1 0x0 PUSH1 0x80 DUP3 ADD SWAP1 POP PUSH2 0xAB0 PUSH1 0x0 DUP4 ADD DUP8 PUSH2 0x923 JUMP JUMPDEST PUSH2 0xABD PUSH1 0x20 DUP4 ADD DUP7 PUSH2 0xA8C JUMP JUMPDEST PUSH2 0xACA PUSH1 0x40 DUP4 ADD DUP6 PUSH2 0x923 JUMP JUMPDEST PUSH2 0xAD7 PUSH1 0x60 DUP4 ADD DUP5 PUSH2 0x923 JUMP JUMPDEST SWAP6 SWAP5 POP POP POP POP POP JUMP INVALID LOG2 PUSH5 0x6970667358 0x22 SLT KECCAK256 BLOCKHASH DIFFICULTY MSTORE8 0xEF DUP16 0xE1 JUMP 0xE7 0xCF 0xE 0x4A DUP13 SAR 0x29 0xDD 0xE9 SWAP9 0xC5 0xB2 0x25 ISZERO DUP8 SHR 0xC3 PUSH31 0xFE4C69A666A45464736F6C6343000809003300000000000000000000000000 "},"methodIdentifiers":{"messageVerify(bytes,uint256,bytes32,bytes8)":"ce6f15c6"}}}}}