{
  "_format": "hh-sol-artifact-1",
  "contractName": "AffidavitSign",
  "sourceName": "contracts/AffidavitSign.sol",
  "abi": [
    {
      "inputs": [],
      "stateMutability": "nonpayable",
      "type": "constructor"
    },
    {
      "inputs": [],
      "name": "Invalid_Signature_By_Owner",
      "type": "error"
    },
    {
      "inputs": [],
      "name": "Nonce_Is_Used",
      "type": "error"
    },
    {
      "inputs": [],
      "name": "SignerAddress_Recovery_Failed",
      "type": "error"
    },
    {
      "anonymous": false,
      "inputs": [
        {
          "indexed": false,
          "internalType": "address",
          "name": "from",
          "type": "address"
        },
        {
          "indexed": false,
          "internalType": "address",
          "name": "to",
          "type": "address"
        },
        {
          "indexed": false,
          "internalType": "bytes32",
          "name": "ipfshash",
          "type": "bytes32"
        },
        {
          "indexed": false,
          "internalType": "bytes32",
          "name": "filehash",
          "type": "bytes32"
        }
      ],
      "name": "RecepientSigned",
      "type": "event"
    },
    {
      "anonymous": false,
      "inputs": [
        {
          "indexed": false,
          "internalType": "address",
          "name": "owner",
          "type": "address"
        },
        {
          "indexed": false,
          "internalType": "address",
          "name": "recepient",
          "type": "address"
        },
        {
          "indexed": false,
          "internalType": "bytes32",
          "name": "msghash",
          "type": "bytes32"
        }
      ],
      "name": "SignatureVerified",
      "type": "event"
    },
    {
      "inputs": [],
      "name": "getOwnerOfContract",
      "outputs": [
        {
          "internalType": "address",
          "name": "",
          "type": "address"
        }
      ],
      "stateMutability": "view",
      "type": "function"
    },
    {
      "inputs": [
        {
          "internalType": "bytes",
          "name": "signature",
          "type": "bytes"
        },
        {
          "internalType": "uint256",
          "name": "nonce",
          "type": "uint256"
        },
        {
          "internalType": "bytes32",
          "name": "ipfs_hash",
          "type": "bytes32"
        },
        {
          "internalType": "bytes8",
          "name": "msgId",
          "type": "bytes8"
        },
        {
          "internalType": "bytes32",
          "name": "filehash",
          "type": "bytes32"
        }
      ],
      "name": "mainSignProcess",
      "outputs": [],
      "stateMutability": "nonpayable",
      "type": "function"
    }
  ],
  "bytecode": "0x60a060405234801561001057600080fd5b503373ffffffffffffffffffffffffffffffffffffffff1660808173ffffffffffffffffffffffffffffffffffffffff1681525050608051610d6261006d600039600081816079015281816101e5015261026a0152610d626000f3fe608060405234801561001057600080fd5b50600436106100365760003560e01c80631567802a1461003b578063e7c8432c14610059575b600080fd5b610043610075565b60405161005091906106ea565b60405180910390f35b610073600480360381019061006e9190610923565b61009d565b005b60007f0000000000000000000000000000000000000000000000000000000000000000905090565b336000806101000a81548173ffffffffffffffffffffffffffffffffffffffff021916908373ffffffffffffffffffffffffffffffffffffffff1602179055506100e9858585856100fa565b6100f38382610247565b5050505050565b600080600061010a8686866102c8565b90506101168188610384565b809450819350505060006004811115610132576101316109ba565b5b836004811115610145576101446109ba565b5b1461017c576040517f87e8191900000000000000000000000000000000000000000000000000000000815260040160405180910390fd5b600061018983838a6103d6565b9050806101c2576040517f9730126700000000000000000000000000000000000000000000000000000000815260040160405180910390fd5b7fcd182b7b23d2cf25e3288287cb62a2c6f0ba73d649eea19849d24c1e7d896a5f7f000000000000000000000000000000000000000000000000000000000000000060008054906101000a900473ffffffffffffffffffffffffffffffffffffffff1684604051610235939291906109f8565b60405180910390a15050505050505050565b7f84875ec6f3430e00bd9b7695549d51b10bbfe765476eeacbac0eaa1653e936917f000000000000000000000000000000000000000000000000000000000000000060008054906101000a900473ffffffffffffffffffffffffffffffffffffffff1684846040516102bc9493929190610a2f565b60405180910390a15050565b60006001600085815260200190815260200160002060009054906101000a900460ff16610321576040517f2991015c00000000000000000000000000000000000000000000000000000000815260040160405180910390fd5b600180600086815260200190815260200160002060006101000a81548160ff0219169083151502179055508183853330604051602001610365959493929190610b1f565b6040516020818303038152906040528051906020012090509392505050565b6000806041835114156103c65760008060006020860151925060408601519150606086015160001a90506103ba8782858561059c565b945094505050506103cf565b60006002915091505b9250929050565b60008060006103e58585610384565b91509150600060048111156103fd576103fc6109ba565b5b8160048111156104105761040f6109ba565b5b14801561044857508573ffffffffffffffffffffffffffffffffffffffff168273ffffffffffffffffffffffffffffffffffffffff16145b1561045857600192505050610595565b6000808773ffffffffffffffffffffffffffffffffffffffff16631626ba7e60e01b888860405160240161048d929190610c06565b604051602081830303815290604052907bffffffffffffffffffffffffffffffffffffffffffffffffffffffff19166020820180517bffffffffffffffffffffffffffffffffffffffffffffffffffffffff83818316178352505050506040516104f79190610c72565b600060405180830381855afa9150503d8060008114610532576040519150601f19603f3d011682016040523d82523d6000602084013e610537565b606091505b509150915081801561054a575060208151145b801561058e5750631626ba7e60e01b7bffffffffffffffffffffffffffffffffffffffffffffffffffffffff19168180602001905181019061058c9190610c9e565b145b9450505050505b9392505050565b6000807f7fffffffffffffffffffffffffffffff5d576e7357a4501ddfe92f46681b20a08360001c11156105d75760006003915091506106a0565b601b8560ff16141580156105ef5750601c8560ff1614155b156106015760006004915091506106a0565b6000600187878787604051600081526020016040526040516106269493929190610ce7565b6020604051602081039080840390855afa158015610648573d6000803e3d6000fd5b505050602060405103519050600073ffffffffffffffffffffffffffffffffffffffff168173ffffffffffffffffffffffffffffffffffffffff161415610697576000600192509250506106a0565b80600092509250505b94509492505050565b600073ffffffffffffffffffffffffffffffffffffffff82169050919050565b60006106d4826106a9565b9050919050565b6106e4816106c9565b82525050565b60006020820190506106ff60008301846106db565b92915050565b6000604051905090565b600080fd5b600080fd5b600080fd5b600080fd5b6000601f19601f8301169050919050565b7f4e487b7100000000000000000000000000000000000000000000000000000000600052604160045260246000fd5b61076c82610723565b810181811067ffffffffffffffff8211171561078b5761078a610734565b5b80604052505050565b600061079e610705565b90506107aa8282610763565b919050565b600067ffffffffffffffff8211156107ca576107c9610734565b5b6107d382610723565b9050602081019050919050565b82818337600083830152505050565b60006108026107fd846107af565b610794565b90508281526020810184848401111561081e5761081d61071e565b5b6108298482856107e0565b509392505050565b600082601f83011261084657610845610719565b5b81356108568482602086016107ef565b91505092915050565b6000819050919050565b6108728161085f565b811461087d57600080fd5b50565b60008135905061088f81610869565b92915050565b6000819050919050565b6108a881610895565b81146108b357600080fd5b50565b6000813590506108c58161089f565b92915050565b60007fffffffffffffffff00000000000000000000000000000000000000000000000082169050919050565b610900816108cb565b811461090b57600080fd5b50565b60008135905061091d816108f7565b92915050565b600080600080600060a0868803121561093f5761093e61070f565b5b600086013567ffffffffffffffff81111561095d5761095c610714565b5b61096988828901610831565b955050602061097a88828901610880565b945050604061098b888289016108b6565b935050606061099c8882890161090e565b92505060806109ad888289016108b6565b9150509295509295909350565b7f4e487b7100000000000000000000000000000000000000000000000000000000600052602160045260246000fd5b6109f281610895565b82525050565b6000606082019050610a0d60008301866106db565b610a1a60208301856106db565b610a2760408301846109e9565b949350505050565b6000608082019050610a4460008301876106db565b610a5160208301866106db565b610a5e60408301856109e9565b610a6b60608301846109e9565b95945050505050565b6000819050919050565b610a8f610a8a826108cb565b610a74565b82525050565b6000819050919050565b610ab0610aab82610895565b610a95565b82525050565b6000819050919050565b610ad1610acc8261085f565b610ab6565b82525050565b60008160601b9050919050565b6000610aef82610ad7565b9050919050565b6000610b0182610ae4565b9050919050565b610b19610b14826106c9565b610af6565b82525050565b6000610b2b8288610a7e565b600882019150610b3b8287610a9f565b602082019150610b4b8286610ac0565b602082019150610b5b8285610b08565b601482019150610b6b8284610b08565b6014820191508190509695505050505050565b600081519050919050565b600082825260208201905092915050565b60005b83811015610bb8578082015181840152602081019050610b9d565b83811115610bc7576000848401525b50505050565b6000610bd882610b7e565b610be28185610b89565b9350610bf2818560208601610b9a565b610bfb81610723565b840191505092915050565b6000604082019050610c1b60008301856109e9565b8181036020830152610c2d8184610bcd565b90509392505050565b600081905092915050565b6000610c4c82610b7e565b610c568185610c36565b9350610c66818560208601610b9a565b80840191505092915050565b6000610c7e8284610c41565b915081905092915050565b600081519050610c988161089f565b92915050565b600060208284031215610cb457610cb361070f565b5b6000610cc284828501610c89565b91505092915050565b600060ff82169050919050565b610ce181610ccb565b82525050565b6000608082019050610cfc60008301876109e9565b610d096020830186610cd8565b610d1660408301856109e9565b610d2360608301846109e9565b9594505050505056fea264697066735822122066d119621a9b72c17407463b8743960df5379154a7962c3008d4a6780de6265164736f6c63430008090033",
  "linkReferences": {},
  "deployedLinkReferences": {}
}